{
  "_format": "hh-sol-artifact-1",
  "contractName": "AssetTracker",
  "sourceName": "contracts/AssetTracker.sol",
  "abi": [
    {
      "anonymous": false,
      "inputs": [
        {
          "indexed": false,
          "internalType": "string",
          "name": "name",
          "type": "string"
        },
        {
          "indexed": false,
          "internalType": "string",
          "name": "add",
          "type": "string"
        },
        {
          "indexed": false,
          "internalType": "string",
          "name": "email",
          "type": "string"
        },
        {
          "indexed": false,
          "internalType": "string",
          "name": "phone",
          "type": "string"
        }
      ],
      "name": "RejectDistributor",
      "type": "event"
    },
    {
      "inputs": [
        {
          "internalType": "uint256",
          "name": "i",
          "type": "uint256"
        }
      ],
      "name": "Arrived",
      "outputs": [],
      "stateMutability": "nonpayable",
      "type": "function"
    },
    {
      "inputs": [],
      "name": "assetCount",
      "outputs": [
        {
          "internalType": "uint256",
          "name": "",
          "type": "uint256"
        }
      ],
      "stateMutability": "view",
      "type": "function"
    },
    {
      "inputs": [
        {
          "internalType": "uint256",
          "name": "_amount",
          "type": "uint256"
        }
      ],
      "name": "balance",
      "outputs": [
        {
          "internalType": "bool",
          "name": "",
          "type": "bool"
        }
      ],
      "stateMutability": "pure",
      "type": "function"
    },
    {
      "inputs": [
        {
          "internalType": "string",
          "name": "name",
          "type": "string"
        },
        {
          "internalType": "string",
          "name": "description",
          "type": "string"
        },
        {
          "internalType": "uint256",
          "name": "distributorId",
          "type": "uint256"
        },
        {
          "internalType": "uint256",
          "name": "cost",
          "type": "uint256"
        },
        {
          "internalType": "uint256",
          "name": "quantity",
          "type": "uint256"
        },
        {
          "internalType": "string",
          "name": "manufacturer",
          "type": "string"
        },
        {
          "internalType": "string",
          "name": "customer",
          "type": "string"
        },
        {
          "internalType": "string",
          "name": "addressFrom",
          "type": "string"
        },
        {
          "internalType": "string",
          "name": "addressTo",
          "type": "string"
        }
      ],
      "name": "createAsset",
      "outputs": [],
      "stateMutability": "nonpayable",
      "type": "function"
    },
    {
      "inputs": [],
      "name": "distributorCount",
      "outputs": [
        {
          "internalType": "uint256",
          "name": "",
          "type": "uint256"
        }
      ],
      "stateMutability": "view",
      "type": "function"
    },
    {
      "inputs": [],
      "name": "getAllAssets",
      "outputs": [
        {
          "components": [
            {
              "internalType": "string",
              "name": "name",
              "type": "string"
            },
            {
              "internalType": "string",
              "name": "description",
              "type": "string"
            },
            {
              "internalType": "uint256",
              "name": "cost",
              "type": "uint256"
            },
            {
              "internalType": "uint256",
              "name": "quantity",
              "type": "uint256"
            },
            {
              "internalType": "string",
              "name": "manufacturer",
              "type": "string"
            },
            {
              "internalType": "string",
              "name": "customer",
              "type": "string"
            },
            {
              "internalType": "string",
              "name": "addressFrom",
              "type": "string"
            },
            {
              "internalType": "string",
              "name": "addressTo",
              "type": "string"
            },
            {
              "internalType": "bool",
              "name": "initialized",
              "type": "bool"
            },
            {
              "internalType": "bool",
              "name": "arrived",
              "type": "bool"
            },
            {
              "internalType": "uint256",
              "name": "distributorId",
              "type": "uint256"
            }
          ],
          "internalType": "struct AssetTracker.Asset[]",
          "name": "",
          "type": "tuple[]"
        }
      ],
      "stateMutability": "view",
      "type": "function"
    },
    {
      "inputs": [],
      "name": "getAlldistributors",
      "outputs": [
        {
          "components": [
            {
              "internalType": "uint256",
              "name": "id",
              "type": "uint256"
            },
            {
              "internalType": "string",
              "name": "name",
              "type": "string"
            },
            {
              "internalType": "string",
              "name": "add",
              "type": "string"
            },
            {
              "internalType": "string",
              "name": "email",
              "type": "string"
            },
            {
              "internalType": "string",
              "name": "phone",
              "type": "string"
            }
          ],
          "internalType": "struct AssetTracker.Person[]",
          "name": "",
          "type": "tuple[]"
        }
      ],
      "stateMutability": "view",
      "type": "function"
    },
    {
      "inputs": [
        {
          "internalType": "uint256",
          "name": "id",
          "type": "uint256"
        }
      ],
      "name": "getDistributorbyId",
      "outputs": [
        {
          "internalType": "string",
          "name": "",
          "type": "string"
        },
        {
          "internalType": "string",
          "name": "",
          "type": "string"
        },
        {
          "internalType": "string",
          "name": "",
          "type": "string"
        },
        {
          "internalType": "string",
          "name": "",
          "type": "string"
        }
      ],
      "stateMutability": "view",
      "type": "function"
    },
    {
      "inputs": [
        {
          "internalType": "uint256",
          "name": "i",
          "type": "uint256"
        }
      ],
      "name": "getItemByUUID",
      "outputs": [
        {
          "internalType": "uint256",
          "name": "cost",
          "type": "uint256"
        },
        {
          "internalType": "uint256",
          "name": "quantity",
          "type": "uint256"
        }
      ],
      "stateMutability": "view",
      "type": "function"
    },
    {
      "inputs": [
        {
          "internalType": "string",
          "name": "name",
          "type": "string"
        },
        {
          "internalType": "string",
          "name": "add",
          "type": "string"
        },
        {
          "internalType": "string",
          "name": "email",
          "type": "string"
        },
        {
          "internalType": "string",
          "name": "phone",
          "type": "string"
        }
      ],
      "name": "insertDistributor",
      "outputs": [
        {
          "internalType": "bool",
          "name": "",
          "type": "bool"
        }
      ],
      "stateMutability": "nonpayable",
      "type": "function"
    },
    {
      "inputs": [
        {
          "internalType": "address",
          "name": "owner",
          "type": "address"
        },
        {
          "internalType": "uint256",
          "name": "i",
          "type": "uint256"
        }
      ],
      "name": "isOwnerOf",
      "outputs": [
        {
          "internalType": "bool",
          "name": "",
          "type": "bool"
        }
      ],
      "stateMutability": "view",
      "type": "function"
    },
    {
      "inputs": [
        {
          "internalType": "address",
          "name": "to",
          "type": "address"
        },
        {
          "internalType": "uint256",
          "name": "i",
          "type": "uint256"
        }
      ],
      "name": "transferAsset",
      "outputs": [],
      "stateMutability": "nonpayable",
      "type": "function"
    }
  ],
  "bytecode": "0x60806040526000600155600060025534801561001a57600080fd5b506123898061002a6000396000f3fe608060405234801561001057600080fd5b50600436106100b45760003560e01c8063ba1d899511610071578063ba1d89951461018d578063c5246353146101be578063c5b8f772146101dc578063c9469a4b1461020c578063eafe7a7414610228578063fdd0e4d714610246576100b4565b80631e78717d146100b95780632acada4d146100d55780633ac140e8146100f357806347bb89f0146101115780635c921eb914610141578063752493291461015d575b600080fd5b6100d360048036038101906100ce9190611723565b610279565b005b6100dd610480565b6040516100ea9190611d7c565b60405180910390f35b6100fb610953565b6040516101089190611edc565b60405180910390f35b61012b60048036038101906101269190611879565b610959565b6040516101389190611dc0565b60405180910390f35b61015b60048036038101906101569190611624565b6109a7565b005b61017760048036038101906101729190611660565b610b8d565b6040516101849190611dc0565b60405180910390f35b6101a760048036038101906101a29190611879565b610d36565b6040516101b5929190611ef7565b60405180910390f35b6101c6610db5565b6040516101d39190611d9e565b60405180910390f35b6101f660048036038101906101f19190611624565b611118565b6040516102039190611dc0565b60405180910390f35b61022660048036038101906102219190611879565b611191565b005b6102306111c3565b60405161023d9190611edc565b60405180910390f35b610260600480360381019061025b9190611879565b6111c9565b6040516102709493929190611ddb565b60405180910390f35b6040518061016001604052808a81526020018981526020018781526020018681526020018581526020018481526020018381526020018281526020016001151581526020016000151581526020018881525060036000600254815260200190815260200160002060008201518160000190805190602001906102fc929190611462565b506020820151816001019080519060200190610319929190611462565b506040820151816002015560608201518160030155608082015181600401908051906020019061034a929190611462565b5060a0820151816005019080519060200190610367929190611462565b5060c0820151816006019080519060200190610384929190611462565b5060e08201518160070190805190602001906103a1929190611462565b506101008201518160080160006101000a81548160ff0219169083151502179055506101208201518160080160016101000a81548160ff02191690831515021790555061014082015181600901559050506001600460003373ffffffffffffffffffffffffffffffffffffffff1673ffffffffffffffffffffffffffffffffffffffff1681526020019081526020016000206000600254815260200190815260200160002060006101000a81548160ff0219169083151502179055506002600081548092919061047090612122565b9190505550505050505050505050565b6060600060025467ffffffffffffffff8111156104c6577f4e487b7100000000000000000000000000000000000000000000000000000000600052604160045260246000fd5b6040519080825280602002602001820160405280156104ff57816020015b6104ec6114e8565b8152602001906001900390816104e45790505b50905060005b60025481101561094b5760006003600083815260200190815260200160002090508060405180610160016040529081600082018054610543906120bf565b80601f016020809104026020016040519081016040528092919081815260200182805461056f906120bf565b80156105bc5780601f10610591576101008083540402835291602001916105bc565b820191906000526020600020905b81548152906001019060200180831161059f57829003601f168201915b505050505081526020016001820180546105d5906120bf565b80601f0160208091040260200160405190810160405280929190818152602001828054610601906120bf565b801561064e5780601f106106235761010080835404028352916020019161064e565b820191906000526020600020905b81548152906001019060200180831161063157829003601f168201915b50505050508152602001600282015481526020016003820154815260200160048201805461067b906120bf565b80601f01602080910402602001604051908101604052809291908181526020018280546106a7906120bf565b80156106f45780601f106106c9576101008083540402835291602001916106f4565b820191906000526020600020905b8154815290600101906020018083116106d757829003601f168201915b5050505050815260200160058201805461070d906120bf565b80601f0160208091040260200160405190810160405280929190818152602001828054610739906120bf565b80156107865780601f1061075b57610100808354040283529160200191610786565b820191906000526020600020905b81548152906001019060200180831161076957829003601f168201915b5050505050815260200160068201805461079f906120bf565b80601f01602080910402602001604051908101604052809291908181526020018280546107cb906120bf565b80156108185780601f106107ed57610100808354040283529160200191610818565b820191906000526020600020905b8154815290600101906020018083116107fb57829003601f168201915b50505050508152602001600782018054610831906120bf565b80601f016020809104026020016040519081016040528092919081815260200182805461085d906120bf565b80156108aa5780601f1061087f576101008083540402835291602001916108aa565b820191906000526020600020905b81548152906001019060200180831161088d57829003601f168201915b505050505081526020016008820160009054906101000a900460ff161515151581526020016008820160019054906101000a900460ff1615151515815260200160098201548152505083838151811061092c577f4e487b7100000000000000000000000000000000000000000000000000000000600052603260045260246000fd5b602002602001018190525050808061094390612122565b915050610505565b508091505090565b60015481565b60006014821061099e576040517f08c379a000000000000000000000000000000000000000000000000000000000815260040161099590611e9c565b60405180910390fd5b60019050919050565b6001151560036000600254815260200190815260200160002060080160009054906101000a900460ff16151514610a13576040517f08c379a0000000000000000000000000000000000000000000000000000000008152600401610a0a90611e7c565b60405180910390fd5b60011515600460003373ffffffffffffffffffffffffffffffffffffffff1673ffffffffffffffffffffffffffffffffffffffff168152602001908152602001600020600083815260200190815260200160002060009054906101000a900460ff16151514610ab7576040517f08c379a0000000000000000000000000000000000000000000000000000000008152600401610aae90611e5c565b60405180910390fd5b6000600460003373ffffffffffffffffffffffffffffffffffffffff1673ffffffffffffffffffffffffffffffffffffffff168152602001908152602001600020600083815260200190815260200160002060006101000a81548160ff0219169083151502179055506001600460008473ffffffffffffffffffffffffffffffffffffffff1673ffffffffffffffffffffffffffffffffffffffff168152602001908152602001600020600083815260200190815260200160002060006101000a81548160ff0219169083151502179055505050565b600080600090505b600154811015610c5357604051602001610bae90611d67565b60405160208183030381529060405280519060200120600080838152602001908152602001600020600301604051602001610be99190611d50565b604051602081830303815290604052805190602001201415610c40576040517f08c379a0000000000000000000000000000000000000000000000000000000008152600401610c3790611e3c565b60405180910390fd5b8080610c4b90612122565b915050610b95565b506040518060a001604052806001548152602001868152602001858152602001848152602001838152506000806001548152602001908152602001600020600082015181600001556020820151816001019080519060200190610cb7929190611462565b506040820151816002019080519060200190610cd4929190611462565b506060820151816003019080519060200190610cf1929190611462565b506080820151816004019080519060200190610d0e929190611462565b5090505060016000815480929190610d2590612122565b919050555060019050949350505050565b600080600254831115610d7e576040517f08c379a0000000000000000000000000000000000000000000000000000000008152600401610d7590611ebc565b60405180910390fd5b6003600084815260200190815260200160002060020154600360008581526020019081526020016000206003015491509150915091565b6060600060015467ffffffffffffffff811115610dfb577f4e487b7100000000000000000000000000000000000000000000000000000000600052604160045260246000fd5b604051908082528060200260200182016040528015610e3457816020015b610e21611546565b815260200190600190039081610e195790505b50905060005b6001548110156111105760008060008381526020019081526020016000209050806040518060a001604052908160008201548152602001600182018054610e80906120bf565b80601f0160208091040260200160405190810160405280929190818152602001828054610eac906120bf565b8015610ef95780601f10610ece57610100808354040283529160200191610ef9565b820191906000526020600020905b815481529060010190602001808311610edc57829003601f168201915b50505050508152602001600282018054610f12906120bf565b80601f0160208091040260200160405190810160405280929190818152602001828054610f3e906120bf565b8015610f8b5780601f10610f6057610100808354040283529160200191610f8b565b820191906000526020600020905b815481529060010190602001808311610f6e57829003601f168201915b50505050508152602001600382018054610fa4906120bf565b80601f0160208091040260200160405190810160405280929190818152602001828054610fd0906120bf565b801561101d5780601f10610ff25761010080835404028352916020019161101d565b820191906000526020600020905b81548152906001019060200180831161100057829003601f168201915b50505050508152602001600482018054611036906120bf565b80601f0160208091040260200160405190810160405280929190818152602001828054611062906120bf565b80156110af5780601f10611084576101008083540402835291602001916110af565b820191906000526020600020905b81548152906001019060200180831161109257829003601f168201915b5050505050815250508383815181106110f1577f4e487b7100000000000000000000000000000000000000000000000000000000600052603260045260246000fd5b602002602001018190525050808061110890612122565b915050610e3a565b508091505090565b6000600460008473ffffffffffffffffffffffffffffffffffffffff1673ffffffffffffffffffffffffffffffffffffffff168152602001908152602001600020600083815260200190815260200160002060009054906101000a900460ff1615611186576001905061118b565b600090505b92915050565b60016003600083815260200190815260200160002060080160016101000a81548160ff02191690831515021790555050565b60025481565b60608060608060008086815260200190815260200160002060010160008087815260200190815260200160002060020160008088815260200190815260200160002060030160008089815260200190815260200160002060040183805461122f906120bf565b80601f016020809104026020016040519081016040528092919081815260200182805461125b906120bf565b80156112a85780601f1061127d576101008083540402835291602001916112a8565b820191906000526020600020905b81548152906001019060200180831161128b57829003601f168201915b505050505093508280546112bb906120bf565b80601f01602080910402602001604051908101604052809291908181526020018280546112e7906120bf565b80156113345780601f1061130957610100808354040283529160200191611334565b820191906000526020600020905b81548152906001019060200180831161131757829003601f168201915b50505050509250818054611347906120bf565b80601f0160208091040260200160405190810160405280929190818152602001828054611373906120bf565b80156113c05780601f10611395576101008083540402835291602001916113c0565b820191906000526020600020905b8154815290600101906020018083116113a357829003601f168201915b505050505091508080546113d3906120bf565b80601f01602080910402602001604051908101604052809291908181526020018280546113ff906120bf565b801561144c5780601f106114215761010080835404028352916020019161144c565b820191906000526020600020905b81548152906001019060200180831161142f57829003601f168201915b5050505050905093509350935093509193509193565b82805461146e906120bf565b90600052602060002090601f01602090048101928261149057600085556114d7565b82601f106114a957805160ff19168380011785556114d7565b828001600101855582156114d7579182015b828111156114d65782518255916020019190600101906114bb565b5b5090506114e49190611575565b5090565b6040518061016001604052806060815260200160608152602001600081526020016000815260200160608152602001606081526020016060815260200160608152602001600015158152602001600015158152602001600081525090565b6040518060a0016040528060008152602001606081526020016060815260200160608152602001606081525090565b5b8082111561158e576000816000905550600101611576565b5090565b60006115a56115a084611f45565b611f20565b9050828152602081018484840111156115bd57600080fd5b6115c884828561207d565b509392505050565b6000813590506115df81612325565b92915050565b600082601f8301126115f657600080fd5b8135611606848260208601611592565b91505092915050565b60008135905061161e8161233c565b92915050565b6000806040838503121561163757600080fd5b6000611645858286016115d0565b92505060206116568582860161160f565b9150509250929050565b6000806000806080858703121561167657600080fd5b600085013567ffffffffffffffff81111561169057600080fd5b61169c878288016115e5565b945050602085013567ffffffffffffffff8111156116b957600080fd5b6116c5878288016115e5565b935050604085013567ffffffffffffffff8111156116e257600080fd5b6116ee878288016115e5565b925050606085013567ffffffffffffffff81111561170b57600080fd5b611717878288016115e5565b91505092959194509250565b60008060008060008060008060006101208a8c03121561174257600080fd5b60008a013567ffffffffffffffff81111561175c57600080fd5b6117688c828d016115e5565b99505060208a013567ffffffffffffffff81111561178557600080fd5b6117918c828d016115e5565b98505060406117a28c828d0161160f565b97505060606117b38c828d0161160f565b96505060806117c48c828d0161160f565b95505060a08a013567ffffffffffffffff8111156117e157600080fd5b6117ed8c828d016115e5565b94505060c08a013567ffffffffffffffff81111561180a57600080fd5b6118168c828d016115e5565b93505060e08a013567ffffffffffffffff81111561183357600080fd5b61183f8c828d016115e5565b9250506101008a013567ffffffffffffffff81111561185d57600080fd5b6118698c828d016115e5565b9150509295985092959850929598565b60006020828403121561188b57600080fd5b60006118998482850161160f565b91505092915050565b60006118ae8383611b95565b905092915050565b60006118c28383611ca7565b905092915050565b60006118d582611fab565b6118df8185611fe6565b9350836020820285016118f185611f76565b8060005b8581101561192d578484038952815161190e85826118a2565b945061191983611fcc565b925060208a019950506001810190506118f5565b50829750879550505050505092915050565b600061194a82611fb6565b6119548185611ff7565b93508360208202850161196685611f86565b8060005b858110156119a2578484038952815161198385826118b6565b945061198e83611fd9565b925060208a0199505060018101905061196a565b50829750879550505050505092915050565b6119bd81612047565b82525050565b6119cc81612047565b82525050565b60006119dd82611fc1565b6119e78185612008565b93506119f781856020860161208c565b611a00816121f8565b840191505092915050565b6000611a1682611fc1565b611a208185612019565b9350611a3081856020860161208c565b611a39816121f8565b840191505092915050565b60008154611a51816120bf565b611a5b818661202a565b94506001821660008114611a765760018114611a8757611aba565b60ff19831686528186019350611aba565b611a9085611f96565b60005b83811015611ab257815481890152600182019150602081019050611a93565b838801955050505b50505092915050565b6000611ad0600d8361202a565b9150611adb82612209565b600d82019050919050565b6000611af3601a83612019565b9150611afe82612232565b602082019050919050565b6000611b16601f83612019565b9150611b218261225b565b602082019050919050565b6000611b39601e83612019565b9150611b4482612284565b602082019050919050565b6000611b5c602283612019565b9150611b67826122ad565b604082019050919050565b6000611b7f601583612019565b9150611b8a826122fc565b602082019050919050565b6000610160830160008301518482036000860152611bb382826119d2565b91505060208301518482036020860152611bcd82826119d2565b9150506040830151611be26040860182611d32565b506060830151611bf56060860182611d32565b5060808301518482036080860152611c0d82826119d2565b91505060a083015184820360a0860152611c2782826119d2565b91505060c083015184820360c0860152611c4182826119d2565b91505060e083015184820360e0860152611c5b82826119d2565b915050610100830151611c726101008601826119b4565b50610120830151611c876101208601826119b4565b50610140830151611c9c610140860182611d32565b508091505092915050565b600060a083016000830151611cbf6000860182611d32565b5060208301518482036020860152611cd782826119d2565b91505060408301518482036040860152611cf182826119d2565b91505060608301518482036060860152611d0b82826119d2565b91505060808301518482036080860152611d2582826119d2565b9150508091505092915050565b611d3b81612073565b82525050565b611d4a81612073565b82525050565b6000611d5c8284611a44565b915081905092915050565b6000611d7282611ac3565b9150819050919050565b60006020820190508181036000830152611d9681846118ca565b905092915050565b60006020820190508181036000830152611db8818461193f565b905092915050565b6000602082019050611dd560008301846119c3565b92915050565b60006080820190508181036000830152611df58187611a0b565b90508181036020830152611e098186611a0b565b90508181036040830152611e1d8185611a0b565b90508181036060830152611e318184611a0b565b905095945050505050565b60006020820190508181036000830152611e5581611ae6565b9050919050565b60006020820190508181036000830152611e7581611b09565b9050919050565b60006020820190508181036000830152611e9581611b2c565b9050919050565b60006020820190508181036000830152611eb581611b4f565b9050919050565b60006020820190508181036000830152611ed581611b72565b9050919050565b6000602082019050611ef16000830184611d41565b92915050565b6000604082019050611f0c6000830185611d41565b611f196020830184611d41565b9392505050565b6000611f2a611f3b565b9050611f3682826120f1565b919050565b6000604051905090565b600067ffffffffffffffff821115611f6057611f5f6121c9565b5b611f69826121f8565b9050602081019050919050565b6000819050602082019050919050565b6000819050602082019050919050565b60008190508160005260206000209050919050565b600081519050919050565b600081519050919050565b600081519050919050565b6000602082019050919050565b6000602082019050919050565b600082825260208201905092915050565b600082825260208201905092915050565b600082825260208201905092915050565b600082825260208201905092915050565b600081905092915050565b600061204082612053565b9050919050565b60008115159050919050565b600073ffffffffffffffffffffffffffffffffffffffff82169050919050565b6000819050919050565b82818337600083830152505050565b60005b838110156120aa57808201518184015260208101905061208f565b838111156120b9576000848401525b50505050565b600060028204905060018216806120d757607f821691505b602082108114156120eb576120ea61219a565b5b50919050565b6120fa826121f8565b810181811067ffffffffffffffff82111715612119576121186121c9565b5b80604052505050565b600061212d82612073565b91507fffffffffffffffffffffffffffffffffffffffffffffffffffffffffffffffff8214156121605761215f61216b565b5b600182019050919050565b7f4e487b7100000000000000000000000000000000000000000000000000000000600052601160045260246000fd5b7f4e487b7100000000000000000000000000000000000000000000000000000000600052602260045260246000fd5b7f4e487b7100000000000000000000000000000000000000000000000000000000600052604160045260246000fd5b6000601f19601f8301169050919050565b7f31323340676d61696c2e636f6d00000000000000000000000000000000000000600082015250565b7f4469737472696275746f7220616c726561647920657869737473000000000000600082015250565b7f53656e64657220646f6573206e6f74206f776e20746869732061737365742e00600082015250565b7f4e6f206173736574207769746820746869732055554944206578697374730000600082015250565b7f42616c616e6365206e65656420746f2062652067726561746572207468616e2060008201527f3230000000000000000000000000000000000000000000000000000000000000602082015250565b7f417373657420646f6573206e6f74206578697374730000000000000000000000600082015250565b61232e81612035565b811461233957600080fd5b50565b61234581612073565b811461235057600080fd5b5056fea264697066735822122097566c39a073d71e138d442ea865b8a2c16913eff2e4f0705f2492da15cb47f064736f6c63430008040033",
  "linkReferences": {},
  "deployedLinkReferences": {}
}